{
  "_format": "hh-sol-artifact-1",
  "contractName": "EcoMarket",
  "sourceName": "contracts/all/EcoMarket.sol",
  "abi": [
    {
      "anonymous": false,
      "inputs": [
        {
          "indexed": true,
          "internalType": "address",
          "name": "previousOwner",
          "type": "address"
        },
        {
          "indexed": true,
          "internalType": "address",
          "name": "newOwner",
          "type": "address"
        }
      ],
      "name": "OwnershipTransferred",
      "type": "event"
    },
    {
      "anonymous": false,
      "inputs": [
        {
          "indexed": false,
          "internalType": "address",
          "name": "account",
          "type": "address"
        }
      ],
      "name": "Paused",
      "type": "event"
    },
    {
      "anonymous": false,
      "inputs": [
        {
          "indexed": false,
          "internalType": "address",
          "name": "account",
          "type": "address"
        }
      ],
      "name": "Unpaused",
      "type": "event"
    },
    {
      "inputs": [
        {
          "internalType": "bytes32",
          "name": "_hashedMessage",
          "type": "bytes32"
        },
        {
          "internalType": "uint8",
          "name": "_v",
          "type": "uint8"
        },
        {
          "internalType": "bytes32",
          "name": "_r",
          "type": "bytes32"
        },
        {
          "internalType": "bytes32",
          "name": "_s",
          "type": "bytes32"
        }
      ],
      "name": "VerifyTRXMessage",
      "outputs": [
        {
          "internalType": "address",
          "name": "",
          "type": "address"
        }
      ],
      "stateMutability": "pure",
      "type": "function"
    },
    {
      "inputs": [],
      "name": "addToEscrow",
      "outputs": [],
      "stateMutability": "payable",
      "type": "function"
    },
    {
      "inputs": [
        {
          "internalType": "bytes",
          "name": "",
          "type": "bytes"
        }
      ],
      "name": "msgHashes",
      "outputs": [
        {
          "internalType": "bool",
          "name": "",
          "type": "bool"
        }
      ],
      "stateMutability": "view",
      "type": "function"
    },
    {
      "inputs": [],
      "name": "owner",
      "outputs": [
        {
          "internalType": "address",
          "name": "",
          "type": "address"
        }
      ],
      "stateMutability": "view",
      "type": "function"
    },
    {
      "inputs": [],
      "name": "pause",
      "outputs": [],
      "stateMutability": "nonpayable",
      "type": "function"
    },
    {
      "inputs": [],
      "name": "paused",
      "outputs": [
        {
          "internalType": "bool",
          "name": "",
          "type": "bool"
        }
      ],
      "stateMutability": "view",
      "type": "function"
    },
    {
      "inputs": [
        {
          "internalType": "uint256",
          "name": "amount",
          "type": "uint256"
        },
        {
          "internalType": "uint256",
          "name": "nonce",
          "type": "uint256"
        },
        {
          "internalType": "address",
          "name": "company",
          "type": "address"
        },
        {
          "internalType": "bytes",
          "name": "signature",
          "type": "bytes"
        }
      ],
      "name": "redeemPaymentFromEscrow",
      "outputs": [],
      "stateMutability": "nonpayable",
      "type": "function"
    },
    {
      "inputs": [
        {
          "internalType": "uint256",
          "name": "amount",
          "type": "uint256"
        }
      ],
      "name": "removeFromEscrow",
      "outputs": [],
      "stateMutability": "nonpayable",
      "type": "function"
    },
    {
      "inputs": [],
      "name": "renounceOwnership",
      "outputs": [],
      "stateMutability": "nonpayable",
      "type": "function"
    },
    {
      "inputs": [
        {
          "internalType": "bytes",
          "name": "sig",
          "type": "bytes"
        }
      ],
      "name": "splitSignature",
      "outputs": [
        {
          "internalType": "bytes32",
          "name": "r",
          "type": "bytes32"
        },
        {
          "internalType": "bytes32",
          "name": "s",
          "type": "bytes32"
        },
        {
          "internalType": "uint8",
          "name": "v",
          "type": "uint8"
        }
      ],
      "stateMutability": "pure",
      "type": "function"
    },
    {
      "inputs": [
        {
          "internalType": "address",
          "name": "newOwner",
          "type": "address"
        }
      ],
      "name": "transferOwnership",
      "outputs": [],
      "stateMutability": "nonpayable",
      "type": "function"
    },
    {
      "inputs": [],
      "name": "unpause",
      "outputs": [],
      "stateMutability": "nonpayable",
      "type": "function"
    },
    {
      "inputs": [
        {
          "internalType": "address",
          "name": "tokenAdress",
          "type": "address"
        },
        {
          "internalType": "uint256",
          "name": "amount",
          "type": "uint256"
        },
        {
          "internalType": "address",
          "name": "to",
          "type": "address"
        }
      ],
      "name": "withdrawTRC20",
      "outputs": [],
      "stateMutability": "nonpayable",
      "type": "function"
    },
    {
      "inputs": [
        {
          "internalType": "uint256",
          "name": "amount",
          "type": "uint256"
        },
        {
          "internalType": "address payable",
          "name": "to",
          "type": "address"
        }
      ],
      "name": "withdrawTRX",
      "outputs": [],
      "stateMutability": "nonpayable",
      "type": "function"
    },
    {
      "stateMutability": "payable",
      "type": "receive"
    }
  ],
  "bytecode": "0x608060405234801561001057600080fd5b5060008060006101000a81548160ff02191690831515021790555061004761003c61005360201b60201c565b61005b60201b60201c565b60018081905550610120565b600033905090565b60008060019054906101000a900473ffffffffffffffffffffffffffffffffffffffff16905081600060016101000a81548173ffffffffffffffffffffffffffffffffffffffff021916908373ffffffffffffffffffffffffffffffffffffffff1602179055508173ffffffffffffffffffffffffffffffffffffffff168173ffffffffffffffffffffffffffffffffffffffff167f8be0079c531659141344cd1fd0a4f28419497f9722a3daafe3b4186f6b6457e060405160405180910390a35050565b611e868061012f6000396000f3fe6080604052600436106100e15760003560e01c80638456cb591161007f578063a7bb580311610059578063a7bb58031461024a578063d0466d5214610289578063d3259a3c146102c6578063f2fde38b146102ef576100e8565b80638456cb59146101cb5780638da5cb5b146101e2578063a4af9d611461020d576100e8565b80635c975abb116100bb5780635c975abb146101565780636f3c00ff14610181578063715018a61461018b5780637aea7b1b146101a2576100e8565b80632801273b146100ed5780633f4ba83a1461011657806353ff09281461012d576100e8565b366100e857005b600080fd5b3480156100f957600080fd5b50610114600480360381019061010f91906110bc565b610318565b005b34801561012257600080fd5b5061012b61040e565b005b34801561013957600080fd5b50610154600480360381019061014f91906111ec565b610420565b005b34801561016257600080fd5b5061016b6105b8565b6040516101789190611658565b60405180910390f35b6101896105ce565b005b34801561019757600080fd5b506101a0610671565b005b3480156101ae57600080fd5b506101c960048036038101906101c49190611219565b610685565b005b3480156101d757600080fd5b506101e0610760565b005b3480156101ee57600080fd5b506101f7610772565b6040516102049190611614565b60405180910390f35b34801561021957600080fd5b50610234600480360381019061022f91906111a3565b61079b565b6040516102419190611658565b60405180910390f35b34801561025657600080fd5b50610271600480360381019061026c91906111a3565b6107d1565b60405161028093929190611673565b60405180910390f35b34801561029557600080fd5b506102b060048036038101906102ab919061113c565b610839565b6040516102bd9190611614565b60405180910390f35b3480156102d257600080fd5b506102ed60048036038101906102e89190611259565b610902565b005b3480156102fb57600080fd5b506103166004803603810190610311919061108f565b610bea565b005b610320610c6e565b610328610cec565b610330610d36565b60008211610373576040517f08c379a000000000000000000000000000000000000000000000000000000000815260040161036a9061180f565b60405180910390fd5b8273ffffffffffffffffffffffffffffffffffffffff1663a9059cbb82846040518363ffffffff1660e01b81526004016103ae92919061162f565b602060405180830381600087803b1580156103c857600080fd5b505af11580156103dc573d6000803e3d6000fd5b505050506040513d601f19601f82011682018060405250810190610400919061110f565b50610409610d86565b505050565b610416610c6e565b61041e610d8f565b565b610428610cec565b600360003373ffffffffffffffffffffffffffffffffffffffff1673ffffffffffffffffffffffffffffffffffffffff1681526020019081526020016000205481116104a9576040517f08c379a00000000000000000000000000000000000000000000000000000000081526004016104a09061174f565b60405180910390fd5b8047116104eb576040517f08c379a00000000000000000000000000000000000000000000000000000000081526004016104e2906117ef565b60405180910390fd5b80600360003373ffffffffffffffffffffffffffffffffffffffff1673ffffffffffffffffffffffffffffffffffffffff168152602001908152602001600020600082825461053a9190611982565b925050819055503373ffffffffffffffffffffffffffffffffffffffff166108fc829081150290604051600060405180830381858888f193505050506105b5576040517f08c379a00000000000000000000000000000000000000000000000000000000081526004016105ac9061186f565b60405180910390fd5b50565b60008060009054906101000a900460ff16905090565b6105d6610cec565b60003411610619576040517f08c379a00000000000000000000000000000000000000000000000000000000081526004016106109061174f565b60405180910390fd5b34600360003373ffffffffffffffffffffffffffffffffffffffff1673ffffffffffffffffffffffffffffffffffffffff1681526020019081526020016000206000828254610668919061192c565b92505081905550565b610679610c6e565b6106836000610df1565b565b61068d610c6e565b610695610cec565b61069d610d36565b600082116106e0576040517f08c379a00000000000000000000000000000000000000000000000000000000081526004016106d79061180f565b60405180910390fd5b8073ffffffffffffffffffffffffffffffffffffffff166108fc839081150290604051600060405180830381858888f19350505050610754576040517f08c379a000000000000000000000000000000000000000000000000000000000815260040161074b9061182f565b60405180910390fd5b61075c610d86565b5050565b610768610c6e565b610770610eb6565b565b60008060019054906101000a900473ffffffffffffffffffffffffffffffffffffffff16905090565b6002818051602081018201805184825260208301602085012081835280955050505050506000915054906101000a900460ff1681565b6000806000604184511461081a576040517f08c379a00000000000000000000000000000000000000000000000000000000081526004016108119061184f565b60405180910390fd5b6020840151925060408401519150606084015160001a90509193909250565b6000806040518060400160405280601881526020017f1954524f4e205369676e6564204d6573736167653a0a333200000000000000008152509050600081876040516020016108899291906115ec565b6040516020818303038152906040528051906020012090506000600182888888604051600081526020016040526040516108c694939291906116aa565b6020604051602081039080840390855afa1580156108e8573d6000803e3d6000fd5b505050602060405103519050809350505050949350505050565b61090a610cec565b610912610d36565b834711610954576040517f08c379a000000000000000000000000000000000000000000000000000000000815260040161094b906117ef565b60405180910390fd5b8173ffffffffffffffffffffffffffffffffffffffff163373ffffffffffffffffffffffffffffffffffffffff1614156109c3576040517f08c379a00000000000000000000000000000000000000000000000000000000081526004016109ba906117af565b60405180910390fd5b600015156002826040516109d791906115d5565b908152602001604051809103902060009054906101000a900460ff16151514610a35576040517f08c379a0000000000000000000000000000000000000000000000000000000008152600401610a2c906116ef565b60405180910390fd5b6000610a42858585610f18565b90506000806000610a52856107d1565b9250925092506000610a6685838686610839565b90508673ffffffffffffffffffffffffffffffffffffffff168173ffffffffffffffffffffffffffffffffffffffff1614610ad6576040517f08c379a0000000000000000000000000000000000000000000000000000000008152600401610acd9061176f565b60405180910390fd5b6001600287604051610ae891906115d5565b908152602001604051809103902060006101000a81548160ff02191690831515021790555088600360008973ffffffffffffffffffffffffffffffffffffffff1673ffffffffffffffffffffffffffffffffffffffff1681526020019081526020016000206000828254610b5c9190611982565b925050819055503373ffffffffffffffffffffffffffffffffffffffff166108fc8a9081150290604051600060405180830381858888f19350505050610bd7576040517f08c379a0000000000000000000000000000000000000000000000000000000008152600401610bce9061186f565b60405180910390fd5b5050505050610be4610d86565b50505050565b610bf2610c6e565b600073ffffffffffffffffffffffffffffffffffffffff168173ffffffffffffffffffffffffffffffffffffffff161415610c62576040517f08c379a0000000000000000000000000000000000000000000000000000000008152600401610c599061172f565b60405180910390fd5b610c6b81610df1565b50565b610c76610f50565b73ffffffffffffffffffffffffffffffffffffffff16610c94610772565b73ffffffffffffffffffffffffffffffffffffffff1614610cea576040517f08c379a0000000000000000000000000000000000000000000000000000000008152600401610ce1906117cf565b60405180910390fd5b565b610cf46105b8565b15610d34576040517f08c379a0000000000000000000000000000000000000000000000000000000008152600401610d2b9061178f565b60405180910390fd5b565b60026001541415610d7c576040517f08c379a0000000000000000000000000000000000000000000000000000000008152600401610d739061188f565b60405180910390fd5b6002600181905550565b60018081905550565b610d97610f58565b60008060006101000a81548160ff0219169083151502179055507f5db9ee0a495bf2e6ff9c91a7834c1ba4fdd244a5e8aa4e537bd38aeae4b073aa610dda610f50565b604051610de79190611614565b60405180910390a1565b60008060019054906101000a900473ffffffffffffffffffffffffffffffffffffffff16905081600060016101000a81548173ffffffffffffffffffffffffffffffffffffffff021916908373ffffffffffffffffffffffffffffffffffffffff1602179055508173ffffffffffffffffffffffffffffffffffffffff168173ffffffffffffffffffffffffffffffffffffffff167f8be0079c531659141344cd1fd0a4f28419497f9722a3daafe3b4186f6b6457e060405160405180910390a35050565b610ebe610cec565b60016000806101000a81548160ff0219169083151502179055507f62e78cea01bee320cd4e420270b5ea74000d11b0c9f74754ebdbfc544b05a258610f01610f50565b604051610f0e9190611614565b60405180910390a1565b600033848484604051602001610f319493929190611587565b6040516020818303038152906040528051906020012090509392505050565b600033905090565b610f606105b8565b610f9f576040517f08c379a0000000000000000000000000000000000000000000000000000000008152600401610f969061170f565b60405180910390fd5b565b6000610fb4610faf846118d4565b6118af565b905082815260208101848484011115610fd057610fcf611b35565b5b610fdb848285611a27565b509392505050565b600081359050610ff281611dc6565b92915050565b60008135905061100781611ddd565b92915050565b60008151905061101c81611df4565b92915050565b60008135905061103181611e0b565b92915050565b600082601f83011261104c5761104b611b30565b5b813561105c848260208601610fa1565b91505092915050565b60008135905061107481611e22565b92915050565b60008135905061108981611e39565b92915050565b6000602082840312156110a5576110a4611b3f565b5b60006110b384828501610fe3565b91505092915050565b6000806000606084860312156110d5576110d4611b3f565b5b60006110e386828701610fe3565b93505060206110f486828701611065565b925050604061110586828701610fe3565b9150509250925092565b60006020828403121561112557611124611b3f565b5b60006111338482850161100d565b91505092915050565b6000806000806080858703121561115657611155611b3f565b5b600061116487828801611022565b94505060206111758782880161107a565b935050604061118687828801611022565b925050606061119787828801611022565b91505092959194509250565b6000602082840312156111b9576111b8611b3f565b5b600082013567ffffffffffffffff8111156111d7576111d6611b3a565b5b6111e384828501611037565b91505092915050565b60006020828403121561120257611201611b3f565b5b600061121084828501611065565b91505092915050565b600080604083850312156112305761122f611b3f565b5b600061123e85828601611065565b925050602061124f85828601610ff8565b9150509250929050565b6000806000806080858703121561127357611272611b3f565b5b600061128187828801611065565b945050602061129287828801611065565b93505060406112a387828801610fe3565b925050606085013567ffffffffffffffff8111156112c4576112c3611b3a565b5b6112d087828801611037565b91505092959194509250565b6112e5816119b6565b82525050565b6112fc6112f7826119b6565b611a9a565b82525050565b61130b816119da565b82525050565b61131a816119e6565b82525050565b61133161132c826119e6565b611aac565b82525050565b600061134282611905565b61134c8185611910565b935061135c818560208601611a36565b80840191505092915050565b600061137560088361191b565b915061138082611b62565b602082019050919050565b600061139860148361191b565b91506113a382611b8b565b602082019050919050565b60006113bb60268361191b565b91506113c682611bb4565b604082019050919050565b60006113de600e8361191b565b91506113e982611c03565b602082019050919050565b6000611401600d8361191b565b915061140c82611c2c565b602082019050919050565b600061142460108361191b565b915061142f82611c55565b602082019050919050565b6000611447600c8361191b565b915061145282611c7e565b602082019050919050565b600061146a60208361191b565b915061147582611ca7565b602082019050919050565b600061148d60158361191b565b915061149882611cd0565b602082019050919050565b60006114b060198361191b565b91506114bb82611cf9565b602082019050919050565b60006114d3601d8361191b565b91506114de82611d22565b602082019050919050565b60006114f660188361191b565b915061150182611d4b565b602082019050919050565b600061151960058361191b565b915061152482611d74565b602082019050919050565b600061153c601f8361191b565b915061154782611d9d565b602082019050919050565b61155b81611a10565b82525050565b61157261156d82611a10565b611ac8565b82525050565b61158181611a1a565b82525050565b600061159382876112eb565b6014820191506115a38286611561565b6020820191506115b38285611561565b6020820191506115c382846112eb565b60148201915081905095945050505050565b60006115e18284611337565b915081905092915050565b60006115f88285611337565b91506116048284611320565b6020820191508190509392505050565b600060208201905061162960008301846112dc565b92915050565b600060408201905061164460008301856112dc565b6116516020830184611552565b9392505050565b600060208201905061166d6000830184611302565b92915050565b60006060820190506116886000830186611311565b6116956020830185611311565b6116a26040830184611578565b949350505050565b60006080820190506116bf6000830187611311565b6116cc6020830186611578565b6116d96040830185611311565b6116e66060830184611311565b95945050505050565b6000602082019050818103600083015261170881611368565b9050919050565b600060208201905081810360008301526117288161138b565b9050919050565b60006020820190508181036000830152611748816113ae565b9050919050565b60006020820190508181036000830152611768816113d1565b9050919050565b60006020820190508181036000830152611788816113f4565b9050919050565b600060208201905081810360008301526117a881611417565b9050919050565b600060208201905081810360008301526117c88161143a565b9050919050565b600060208201905081810360008301526117e88161145d565b9050919050565b6000602082019050818103600083015261180881611480565b9050919050565b60006020820190508181036000830152611828816114a3565b9050919050565b60006020820190508181036000830152611848816114c6565b9050919050565b60006020820190508181036000830152611868816114e9565b9050919050565b600060208201905081810360008301526118888161150c565b9050919050565b600060208201905081810360008301526118a88161152f565b9050919050565b60006118b96118ca565b90506118c58282611a69565b919050565b6000604051905090565b600067ffffffffffffffff8211156118ef576118ee611b01565b5b6118f882611b44565b9050602081019050919050565b600081519050919050565b600081905092915050565b600082825260208201905092915050565b600061193782611a10565b915061194283611a10565b9250827fffffffffffffffffffffffffffffffffffffffffffffffffffffffffffffffff0382111561197757611976611ad2565b5b828201905092915050565b600061198d82611a10565b915061199883611a10565b9250828210156119ab576119aa611ad2565b5b828203905092915050565b60006119c1826119f0565b9050919050565b60006119d3826119f0565b9050919050565b60008115159050919050565b6000819050919050565b600073ffffffffffffffffffffffffffffffffffffffff82169050919050565b6000819050919050565b600060ff82169050919050565b82818337600083830152505050565b60005b83811015611a54578082015181840152602081019050611a39565b83811115611a63576000848401525b50505050565b611a7282611b44565b810181811067ffffffffffffffff82111715611a9157611a90611b01565b5b80604052505050565b6000611aa582611ab6565b9050919050565b6000819050919050565b6000611ac182611b55565b9050919050565b6000819050919050565b7f4e487b7100000000000000000000000000000000000000000000000000000000600052601160045260246000fd5b7f4e487b7100000000000000000000000000000000000000000000000000000000600052604160045260246000fd5b600080fd5b600080fd5b600080fd5b600080fd5b6000601f19601f8301169050919050565b60008160601b9050919050565b7f496e76616c696421000000000000000000000000000000000000000000000000600082015250565b7f5061757361626c653a206e6f7420706175736564000000000000000000000000600082015250565b7f4f776e61626c653a206e6577206f776e657220697320746865207a65726f206160008201527f6464726573730000000000000000000000000000000000000000000000000000602082015250565b7f496e76616c696420616d6f756e74000000000000000000000000000000000000600082015250565b7f556e617574686f72697a65642100000000000000000000000000000000000000600082015250565b7f5061757361626c653a2070617573656400000000000000000000000000000000600082015250565b7f4e6f7420616c6c6f776564210000000000000000000000000000000000000000600082015250565b7f4f776e61626c653a2063616c6c6572206973206e6f7420746865206f776e6572600082015250565b7f496e73756666696369656e742062616c616e6365210000000000000000000000600082015250565b7f45636f4d61726b65743a20496e76616c696420616d6f756e7400000000000000600082015250565b7f45636f4d61726b65743a204e6f7420656e6f7567682062616c616e6365000000600082015250565b7f696e76616c6964207369676e6174757265206c656e6774680000000000000000600082015250565b7f4572726f72000000000000000000000000000000000000000000000000000000600082015250565b7f5265656e7472616e637947756172643a207265656e7472616e742063616c6c00600082015250565b611dcf816119b6565b8114611dda57600080fd5b50565b611de6816119c8565b8114611df157600080fd5b50565b611dfd816119da565b8114611e0857600080fd5b50565b611e14816119e6565b8114611e1f57600080fd5b50565b611e2b81611a10565b8114611e3657600080fd5b50565b611e4281611a1a565b8114611e4d57600080fd5b5056fea2646970667358221220061ab99a6aa5e577c1fdc344a8a2602a1df0c9af8f12c499965ffd51890d4f8864736f6c63430008070033",
  "linkReferences": {},
  "deployedLinkReferences": {}
}